{
  "contractName": "ButtonClickGame",
  "abi": [
    {
      "constant": true,
      "inputs": [],
      "name": "name",
      "outputs": [
        {
          "name": "",
          "type": "string"
        }
      ],
      "payable": false,
      "stateMutability": "view",
      "type": "function"
    },
    {
      "constant": true,
      "inputs": [
        {
          "name": "_tokenId",
          "type": "uint256"
        }
      ],
      "name": "getApproved",
      "outputs": [
        {
          "name": "",
          "type": "address"
        }
      ],
      "payable": false,
      "stateMutability": "view",
      "type": "function"
    },
    {
      "constant": false,
      "inputs": [
        {
          "name": "_to",
          "type": "address"
        },
        {
          "name": "_tokenId",
          "type": "uint256"
        }
      ],
      "name": "approve",
      "outputs": [],
      "payable": false,
      "stateMutability": "nonpayable",
      "type": "function"
    },
    {
      "constant": true,
      "inputs": [
        {
          "name": "addr",
          "type": "address"
        },
        {
          "name": "roleName",
          "type": "string"
        }
      ],
      "name": "checkRole",
      "outputs": [],
      "payable": false,
      "stateMutability": "view",
      "type": "function"
    },
    {
      "constant": true,
      "inputs": [],
      "name": "totalSupply",
      "outputs": [
        {
          "name": "",
          "type": "uint256"
        }
      ],
      "payable": false,
      "stateMutability": "view",
      "type": "function"
    },
    {
      "constant": false,
      "inputs": [
        {
          "name": "_minimumFee",
          "type": "uint256"
        }
      ],
      "name": "setMinimumFee",
      "outputs": [],
      "payable": false,
      "stateMutability": "nonpayable",
      "type": "function"
    },
    {
      "constant": true,
      "inputs": [],
      "name": "minimumFee",
      "outputs": [
        {
          "name": "",
          "type": "uint256"
        }
      ],
      "payable": false,
      "stateMutability": "view",
      "type": "function"
    },
    {
      "constant": true,
      "inputs": [],
      "name": "started",
      "outputs": [
        {
          "name": "",
          "type": "bool"
        }
      ],
      "payable": false,
      "stateMutability": "view",
      "type": "function"
    },
    {
      "constant": true,
      "inputs": [
        {
          "name": "addr",
          "type": "address"
        },
        {
          "name": "roleName",
          "type": "string"
        }
      ],
      "name": "hasRole",
      "outputs": [
        {
          "name": "",
          "type": "bool"
        }
      ],
      "payable": false,
      "stateMutability": "view",
      "type": "function"
    },
    {
      "constant": false,
      "inputs": [
        {
          "name": "_from",
          "type": "address"
        },
        {
          "name": "_to",
          "type": "address"
        },
        {
          "name": "_tokenId",
          "type": "uint256"
        }
      ],
      "name": "transferFrom",
      "outputs": [],
      "payable": false,
      "stateMutability": "nonpayable",
      "type": "function"
    },
    {
      "constant": true,
      "inputs": [],
      "name": "requiredBlocksElapsedForVictory",
      "outputs": [
        {
          "name": "",
          "type": "uint256"
        }
      ],
      "payable": false,
      "stateMutability": "view",
      "type": "function"
    },
    {
      "constant": true,
      "inputs": [
        {
          "name": "",
          "type": "uint8"
        }
      ],
      "name": "numberOfClicksAtBlocksRemaining",
      "outputs": [
        {
          "name": "",
          "type": "uint256"
        }
      ],
      "payable": false,
      "stateMutability": "view",
      "type": "function"
    },
    {
      "constant": true,
      "inputs": [
        {
          "name": "_owner",
          "type": "address"
        },
        {
          "name": "_index",
          "type": "uint256"
        }
      ],
      "name": "tokenOfOwnerByIndex",
      "outputs": [
        {
          "name": "",
          "type": "uint256"
        }
      ],
      "payable": false,
      "stateMutability": "view",
      "type": "function"
    },
    {
      "constant": true,
      "inputs": [],
      "name": "blockNumberForVictory",
      "outputs": [
        {
          "name": "",
          "type": "uint256"
        }
      ],
      "payable": false,
      "stateMutability": "view",
      "type": "function"
    },
    {
      "constant": false,
      "inputs": [
        {
          "name": "_requiredBlocksElapsedForVictory",
          "type": "uint256"
        }
      ],
      "name": "setRequiredBlocksElapsedForVictory",
      "outputs": [],
      "payable": false,
      "stateMutability": "nonpayable",
      "type": "function"
    },
    {
      "constant": false,
      "inputs": [
        {
          "name": "_from",
          "type": "address"
        },
        {
          "name": "_to",
          "type": "address"
        },
        {
          "name": "_tokenId",
          "type": "uint256"
        }
      ],
      "name": "safeTransferFrom",
      "outputs": [],
      "payable": false,
      "stateMutability": "nonpayable",
      "type": "function"
    },
    {
      "constant": true,
      "inputs": [
        {
          "name": "_tokenId",
          "type": "uint256"
        }
      ],
      "name": "exists",
      "outputs": [
        {
          "name": "",
          "type": "bool"
        }
      ],
      "payable": false,
      "stateMutability": "view",
      "type": "function"
    },
    {
      "constant": true,
      "inputs": [
        {
          "name": "_index",
          "type": "uint256"
        }
      ],
      "name": "tokenByIndex",
      "outputs": [
        {
          "name": "",
          "type": "uint256"
        }
      ],
      "payable": false,
      "stateMutability": "view",
      "type": "function"
    },
    {
      "constant": false,
      "inputs": [],
      "name": "withdrawBalance",
      "outputs": [],
      "payable": false,
      "stateMutability": "nonpayable",
      "type": "function"
    },
    {
      "constant": true,
      "inputs": [
        {
          "name": "_tokenId",
          "type": "uint256"
        }
      ],
      "name": "ownerOf",
      "outputs": [
        {
          "name": "",
          "type": "address"
        }
      ],
      "payable": false,
      "stateMutability": "view",
      "type": "function"
    },
    {
      "constant": true,
      "inputs": [
        {
          "name": "",
          "type": "address"
        }
      ],
      "name": "addressLastClickedForGeneration",
      "outputs": [
        {
          "name": "",
          "type": "uint256"
        }
      ],
      "payable": false,
      "stateMutability": "view",
      "type": "function"
    },
    {
      "constant": true,
      "inputs": [
        {
          "name": "_owner",
          "type": "address"
        }
      ],
      "name": "balanceOf",
      "outputs": [
        {
          "name": "",
          "type": "uint256"
        }
      ],
      "payable": false,
      "stateMutability": "view",
      "type": "function"
    },
    {
      "constant": false,
      "inputs": [
        {
          "name": "addr",
          "type": "address"
        },
        {
          "name": "roleName",
          "type": "string"
        }
      ],
      "name": "adminRemoveRole",
      "outputs": [],
      "payable": false,
      "stateMutability": "nonpayable",
      "type": "function"
    },
    {
      "constant": true,
      "inputs": [],
      "name": "symbol",
      "outputs": [
        {
          "name": "",
          "type": "string"
        }
      ],
      "payable": false,
      "stateMutability": "view",
      "type": "function"
    },
    {
      "constant": false,
      "inputs": [
        {
          "name": "_to",
          "type": "address"
        },
        {
          "name": "_approved",
          "type": "bool"
        }
      ],
      "name": "setApprovalForAll",
      "outputs": [],
      "payable": false,
      "stateMutability": "nonpayable",
      "type": "function"
    },
    {
      "constant": false,
      "inputs": [
        {
          "name": "addr",
          "type": "address"
        },
        {
          "name": "roleName",
          "type": "string"
        }
      ],
      "name": "adminAddRole",
      "outputs": [],
      "payable": false,
      "stateMutability": "nonpayable",
      "type": "function"
    },
    {
      "constant": false,
      "inputs": [
        {
          "name": "_from",
          "type": "address"
        },
        {
          "name": "_to",
          "type": "address"
        },
        {
          "name": "_tokenId",
          "type": "uint256"
        },
        {
          "name": "_data",
          "type": "bytes"
        }
      ],
      "name": "safeTransferFrom",
      "outputs": [],
      "payable": false,
      "stateMutability": "nonpayable",
      "type": "function"
    },
    {
      "constant": true,
      "inputs": [
        {
          "name": "_tokenId",
          "type": "uint256"
        }
      ],
      "name": "tokenURI",
      "outputs": [
        {
          "name": "",
          "type": "string"
        }
      ],
      "payable": false,
      "stateMutability": "view",
      "type": "function"
    },
    {
      "constant": true,
      "inputs": [],
      "name": "ROLE_ADMIN",
      "outputs": [
        {
          "name": "",
          "type": "string"
        }
      ],
      "payable": false,
      "stateMutability": "view",
      "type": "function"
    },
    {
      "constant": true,
      "inputs": [
        {
          "name": "_owner",
          "type": "address"
        },
        {
          "name": "_operator",
          "type": "address"
        }
      ],
      "name": "isApprovedForAll",
      "outputs": [
        {
          "name": "",
          "type": "bool"
        }
      ],
      "payable": false,
      "stateMutability": "view",
      "type": "function"
    },
    {
      "constant": true,
      "inputs": [],
      "name": "gameGeneration",
      "outputs": [
        {
          "name": "",
          "type": "uint256"
        }
      ],
      "payable": false,
      "stateMutability": "view",
      "type": "function"
    },
    {
      "anonymous": false,
      "inputs": [
        {
          "indexed": true,
          "name": "owner",
          "type": "address"
        },
        {
          "indexed": false,
          "name": "tokenId",
          "type": "uint256"
        }
      ],
      "name": "ButtonClick",
      "type": "event"
    },
    {
      "anonymous": false,
      "inputs": [
        {
          "indexed": false,
          "name": "addr",
          "type": "address"
        },
        {
          "indexed": false,
          "name": "roleName",
          "type": "string"
        }
      ],
      "name": "RoleAdded",
      "type": "event"
    },
    {
      "anonymous": false,
      "inputs": [
        {
          "indexed": false,
          "name": "addr",
          "type": "address"
        },
        {
          "indexed": false,
          "name": "roleName",
          "type": "string"
        }
      ],
      "name": "RoleRemoved",
      "type": "event"
    },
    {
      "anonymous": false,
      "inputs": [
        {
          "indexed": true,
          "name": "_from",
          "type": "address"
        },
        {
          "indexed": true,
          "name": "_to",
          "type": "address"
        },
        {
          "indexed": false,
          "name": "_tokenId",
          "type": "uint256"
        }
      ],
      "name": "Transfer",
      "type": "event"
    },
    {
      "anonymous": false,
      "inputs": [
        {
          "indexed": true,
          "name": "_owner",
          "type": "address"
        },
        {
          "indexed": true,
          "name": "_approved",
          "type": "address"
        },
        {
          "indexed": false,
          "name": "_tokenId",
          "type": "uint256"
        }
      ],
      "name": "Approval",
      "type": "event"
    },
    {
      "anonymous": false,
      "inputs": [
        {
          "indexed": true,
          "name": "_owner",
          "type": "address"
        },
        {
          "indexed": true,
          "name": "_operator",
          "type": "address"
        },
        {
          "indexed": false,
          "name": "_approved",
          "type": "bool"
        }
      ],
      "name": "ApprovalForAll",
      "type": "event"
    },
    {
      "constant": false,
      "inputs": [],
      "name": "clickButton",
      "outputs": [
        {
          "name": "",
          "type": "uint256"
        }
      ],
      "payable": true,
      "stateMutability": "payable",
      "type": "function"
    },
    {
      "constant": true,
      "inputs": [
        {
          "name": "_id",
          "type": "uint256"
        }
      ],
      "name": "getClickMetadata",
      "outputs": [
        {
          "name": "blocksAwayFromDesiredBlock",
          "type": "uint256"
        },
        {
          "name": "clickTime",
          "type": "uint256"
        },
        {
          "name": "clickGeneration",
          "type": "uint256"
        },
        {
          "name": "owner",
          "type": "address"
        }
      ],
      "payable": false,
      "stateMutability": "view",
      "type": "function"
    }
  ],
  "bytecode": "0x60606040526000600c60006101000a81548160ff02191690831515021790555060016010556040805190810160405280601081526020017f54686520457468657220427574746f6e000000000000000000000000000000008152506040805190810160405280600481526020017f42757474000000000000000000000000000000000000000000000000000000008152508160049080519060200190620000a8929190620002e3565b508060059080519060200190620000c1929190620002e3565b50505062000119336040805190810160405280600581526020017f61646d696e0000000000000000000000000000000000000000000000000000008152506200011f6401000000000262002402176401000000009004565b62000392565b620001ae82600b836040518082805190602001908083835b6020831015156200015e578051825260208201915060208101905060208303925062000137565b6001836020036101000a0380198251168184511680821785525050505050509050019150509081526020016040518091039020620002856401000000000262002ac9179091906401000000009004565b7fbfec83d64eaa953f2708271a023ab9ee82057f8f3578d548c1a4ba0b5b7004898282604051808373ffffffffffffffffffffffffffffffffffffffff1673ffffffffffffffffffffffffffffffffffffffff16815260200180602001828103825283818151815260200191508051906020019080838360005b838110156200024557808201518184015260208101905062000228565b50505050905090810190601f168015620002735780820380516001836020036101000a031916815260200191505b50935050505060405180910390a15050565b60018260000160008373ffffffffffffffffffffffffffffffffffffffff1673ffffffffffffffffffffffffffffffffffffffff16815260200190815260200160002060006101000a81548160ff0219169083151502179055505050565b828054600181600116156101000203166002900490600052602060002090601f016020900481019282601f106200032657805160ff191683800117855562000357565b8280016001018555821562000357579182015b828111156200035657825182559160200191906001019062000339565b5b5090506200036691906200036a565b5090565b6200038f91905b808211156200038b57600081600090555060010162000371565b5090565b90565b612cf180620003a26000396000f3006060604052600436106101a1576000357c0100000000000000000000000000000000000000000000000000000000900463ffffffff16806306fdde03146101a6578063081812fc14610234578063095ea7b3146102975780630988ca8c146102d957806318160ddd14610355578063182a75061461037e5780631a7626e7146103a15780631f2698ab146103ca578063217fe6c6146103f757806323b872dd1461048b57806324fa6f3b146104ec57806325c82f86146105155780632f745c591461054f5780633a3eda84146105a55780633bd0a6e5146105ce5780633ccb25a2146105ec57806342842e0e1461060f5780634f558e79146106705780634f6ccce7146106ab5780635fd8c710146106e25780636352211e146106f757806367b55bf91461075a578063706184b2146107d257806370a082311461081f57806388cee87e1461086c57806395d89b41146108e8578063a22cb46514610976578063b25fa92c146109ba578063b88d4fde14610a36578063c87b56dd14610ada578063d391014b14610b76578063e985e9c514610c04578063eb34967a14610c74575b600080fd5b34156101b157600080fd5b6101b9610c9d565b6040518080602001828103825283818151815260200191508051906020019080838360005b838110156101f95780820151818401526020810190506101de565b50505050905090810190601f1680156102265780820380516001836020036101000a031916815260200191505b509250505060405180910390f35b341561023f57600080fd5b6102556004808035906020019091905050610d45565b604051808273ffffffffffffffffffffffffffffffffffffffff1673ffffffffffffffffffffffffffffffffffffffff16815260200191505060405180910390f35b34156102a257600080fd5b6102d7600480803573ffffffffffffffffffffffffffffffffffffffff16906020019091908035906020019091905050610d82565b005b34156102e457600080fd5b610353600480803573ffffffffffffffffffffffffffffffffffffffff1690602001909190803590602001908201803590602001908080601f01602080910402602001604051908101604052809392919081815260200183838082843782019150505050505091905050610f48565b005b341561036057600080fd5b610368610fc9565b6040518082815260200191505060405180910390f35b341561038957600080fd5b61039f6004808035906020019091905050610fd6565b005b34156103ac57600080fd5b6103b461101f565b6040518082815260200191505060405180910390f35b34156103d557600080fd5b6103dd611025565b604051808215151515815260200191505060405180910390f35b341561040257600080fd5b610471600480803573ffffffffffffffffffffffffffffffffffffffff1690602001909190803590602001908201803590602001908080601f01602080910402602001604051908101604052809392919081815260200183838082843782019150505050505091905050611038565b604051808215151515815260200191505060405180910390f35b341561049657600080fd5b6104ea600480803573ffffffffffffffffffffffffffffffffffffffff1690602001909190803573ffffffffffffffffffffffffffffffffffffffff169060200190919080359060200190919050506110bf565b005b34156104f757600080fd5b6104ff6111d6565b6040518082815260200191505060405180910390f35b341561052057600080fd5b610539600480803560ff169060200190919050506111dc565b6040518082815260200191505060405180910390f35b341561055a57600080fd5b61058f600480803573ffffffffffffffffffffffffffffffffffffffff169060200190919080359060200190919050506111f4565b6040518082815260200191505060405180910390f35b34156105b057600080fd5b6105b861126c565b6040518082815260200191505060405180910390f35b6105d6611272565b6040518082815260200191505060405180910390f35b34156105f757600080fd5b61060d600480803590602001909190505061151d565b005b341561061a57600080fd5b61066e600480803573ffffffffffffffffffffffffffffffffffffffff1690602001909190803573ffffffffffffffffffffffffffffffffffffffff16906020019091908035906020019091905050611566565b005b341561067b57600080fd5b610691600480803590602001909190505061159e565b604051808215151515815260200191505060405180910390f35b34156106b657600080fd5b6106cc600480803590602001909190505061160f565b6040518082815260200191505060405180910390f35b34156106ed57600080fd5b6106f5611648565b005b341561070257600080fd5b61071860048080359060200190919050506116e0565b604051808273ffffffffffffffffffffffffffffffffffffffff1673ffffffffffffffffffffffffffffffffffffffff16815260200191505060405180910390f35b341561076557600080fd5b61077b600480803590602001909190505061175d565b604051808581526020018481526020018381526020018273ffffffffffffffffffffffffffffffffffffffff1673ffffffffffffffffffffffffffffffffffffffff16815260200194505050505060405180910390f35b34156107dd57600080fd5b610809600480803573ffffffffffffffffffffffffffffffffffffffff16906020019091905050611803565b6040518082815260200191505060405180910390f35b341561082a57600080fd5b610856600480803573ffffffffffffffffffffffffffffffffffffffff1690602001909190505061181b565b6040518082815260200191505060405180910390f35b341561087757600080fd5b6108e6600480803573ffffffffffffffffffffffffffffffffffffffff1690602001909190803590602001908201803590602001908080601f0160208091040260200160405190810160405280939291908181526020018383808284378201915050505050509190505061189f565b005b34156108f357600080fd5b6108fb6118ec565b6040518080602001828103825283818151815260200191508051906020019080838360005b8381101561093b578082015181840152602081019050610920565b50505050905090810190601f1680156109685780820380516001836020036101000a031916815260200191505b509250505060405180910390f35b341561098157600080fd5b6109b8600480803573ffffffffffffffffffffffffffffffffffffffff169060200190919080351515906020019091905050611994565b005b34156109c557600080fd5b610a34600480803573ffffffffffffffffffffffffffffffffffffffff1690602001909190803590602001908201803590602001908080601f01602080910402602001604051908101604052809392919081815260200183838082843782019150505050505091905050611ad0565b005b3415610a4157600080fd5b610ad8600480803573ffffffffffffffffffffffffffffffffffffffff1690602001909190803573ffffffffffffffffffffffffffffffffffffffff1690602001909190803590602001909190803590602001908201803590602001908080601f01602080910402602001604051908101604052809392919081815260200183838082843782019150505050505091905050611b1d565b005b3415610ae557600080fd5b610afb6004808035906020019091905050611b5c565b6040518080602001828103825283818151815260200191508051906020019080838360005b83811015610b3b578082015181840152602081019050610b20565b50505050905090810190601f168015610b685780820380516001836020036101000a031916815260200191505b509250505060405180910390f35b3415610b8157600080fd5b610b89611c2b565b6040518080602001828103825283818151815260200191508051906020019080838360005b83811015610bc9578082015181840152602081019050610bae565b50505050905090810190601f168015610bf65780820380516001836020036101000a031916815260200191505b509250505060405180910390f35b3415610c0f57600080fd5b610c5a600480803573ffffffffffffffffffffffffffffffffffffffff1690602001909190803573ffffffffffffffffffffffffffffffffffffffff16906020019091905050611c64565b604051808215151515815260200191505060405180910390f35b3415610c7f57600080fd5b610c87611cf8565b6040518082815260200191505060405180910390f35b610ca5612b58565b60048054600181600116156101000203166002900480601f016020809104026020016040519081016040528092919081815260200182805460018160011615610100020316600290048015610d3b5780601f10610d1057610100808354040283529160200191610d3b565b820191906000526020600020905b815481529060010190602001808311610d1e57829003601f168201915b5050505050905090565b60006001600083815260200190815260200160002060009054906101000a900473ffffffffffffffffffffffffffffffffffffffff169050919050565b6000610d8d826116e0565b90508073ffffffffffffffffffffffffffffffffffffffff168373ffffffffffffffffffffffffffffffffffffffff1614151515610dca57600080fd5b8073ffffffffffffffffffffffffffffffffffffffff163373ffffffffffffffffffffffffffffffffffffffff161480610e0a5750610e098133611c64565b5b1515610e1557600080fd5b600073ffffffffffffffffffffffffffffffffffffffff16610e3683610d45565b73ffffffffffffffffffffffffffffffffffffffff16141580610e865750600073ffffffffffffffffffffffffffffffffffffffff168373ffffffffffffffffffffffffffffffffffffffff1614155b15610f4357826001600084815260200190815260200160002060006101000a81548173ffffffffffffffffffffffffffffffffffffffff021916908373ffffffffffffffffffffffffffffffffffffffff1602179055508273ffffffffffffffffffffffffffffffffffffffff168173ffffffffffffffffffffffffffffffffffffffff167f8c5be1e5ebec7d5bd14f71427d1e84f3dd0314c0f7b2291e5b200ac8c7c3b925846040518082815260200191505060405180910390a35b505050565b610fc582600b836040518082805190602001908083835b602083101515610f845780518252602082019150602081019050602083039250610f5f565b6001836020036101000a0380198251168184511680821785525050505050509050019150509081526020016040518091039020611cfe90919063ffffffff16565b5050565b6000600880549050905090565b611015336040805190810160405280600781526020017f66696e616e636500000000000000000000000000000000000000000000000000815250610f48565b80600d8190555050565b600d5481565b600c60009054906101000a900460ff1681565b60006110b783600b846040518082805190602001908083835b6020831015156110765780518252602082019150602081019050602083039250611051565b6001836020036101000a0380198251168184511680821785525050505050509050019150509081526020016040518091039020611d1790919063ffffffff16565b905092915050565b806110ca3382611d70565b15156110d557600080fd5b600073ffffffffffffffffffffffffffffffffffffffff168473ffffffffffffffffffffffffffffffffffffffff161415151561111157600080fd5b600073ffffffffffffffffffffffffffffffffffffffff168373ffffffffffffffffffffffffffffffffffffffff161415151561114d57600080fd5b6111578483611e05565b6111618483611f6e565b61116b8383612189565b8273ffffffffffffffffffffffffffffffffffffffff168473ffffffffffffffffffffffffffffffffffffffff167fddf252ad1be2c89b69c2b068fc378daa952ba7f163c4a11628f55a4df523b3ef846040518082815260200191505060405180910390a350505050565b600e5481565b60136020528060005260406000206000915090505481565b60006111ff8361181b565b8210151561120c57600080fd5b600660008473ffffffffffffffffffffffffffffffffffffffff1673ffffffffffffffffffffffffffffffffffffffff1681526020019081526020016000208281548110151561125857fe5b906000526020600020900154905092915050565b60115481565b600080600061127f612b6c565b6000600c60009054906101000a900460ff16151561129c57600080fd5b600d5434101515156112ad57600080fd5b61ffff601054111515156112c057600080fd5b601054601260003373ffffffffffffffffffffffffffffffffffffffff1673ffffffffffffffffffffffffffffffffffffffff1681526020019081526020016000205410151561130f57600080fd5b601054601260003373ffffffffffffffffffffffffffffffffffffffff1673ffffffffffffffffffffffffffffffffffffffff1681526020019081526020016000208190555043601154111561136b5743601154039350611370565b600093505b60105492506000841415611391576010600081548092919060010191905055505b6001601360008660ff1660ff16815260200190815260200160002060008282540192505081905550600e5443016011819055506060604051908101604052808567ffffffffffffffff1681526020018467ffffffffffffffff1681526020014267ffffffffffffffff1681525091506001600f80548060010182816114169190612bac565b9160005260206000209001600085909190915060008201518160000160006101000a81548167ffffffffffffffff021916908367ffffffffffffffff16021790555060208201518160000160086101000a81548167ffffffffffffffff021916908367ffffffffffffffff16021790555060408201518160000160106101000a81548167ffffffffffffffff021916908367ffffffffffffffff16021790555050500390503373ffffffffffffffffffffffffffffffffffffffff167f0691b9a8aafa3a93964a82e6102bd74f03c9bbc2506526d29528c77be24d7c0f826040518082815260200191505060405180910390a2611513338261225d565b8094505050505090565b61155c336040805190810160405280600581526020017f61646d696e000000000000000000000000000000000000000000000000000000815250610f48565b80600e8190555050565b806115713382611d70565b151561157c57600080fd5b6115988484846020604051908101604052806000815250611b1d565b50505050565b60008060008084815260200190815260200160002060009054906101000a900473ffffffffffffffffffffffffffffffffffffffff169050600073ffffffffffffffffffffffffffffffffffffffff168173ffffffffffffffffffffffffffffffffffffffff161415915050919050565b6000611619610fc9565b8210151561162657600080fd5b60088281548110151561163557fe5b9060005260206000209001549050919050565b611687336040805190810160405280600781526020017f66696e616e636500000000000000000000000000000000000000000000000000815250610f48565b3373ffffffffffffffffffffffffffffffffffffffff166108fc3073ffffffffffffffffffffffffffffffffffffffff16319081150290604051600060405180830381858888f1935050505015156116de57600080fd5b565b60008060008084815260200190815260200160002060009054906101000a900473ffffffffffffffffffffffffffffffffffffffff169050600073ffffffffffffffffffffffffffffffffffffffff168173ffffffffffffffffffffffffffffffffffffffff161415151561175457600080fd5b80915050919050565b6000806000806000600f8681548110151561177457fe5b906000526020600020900190508060000160009054906101000a900467ffffffffffffffff1667ffffffffffffffff1694508060000160109054906101000a900467ffffffffffffffff1667ffffffffffffffff1693508060000160089054906101000a900467ffffffffffffffff1667ffffffffffffffff1692506117f9866116e0565b9150509193509193565b60126020528060005260406000206000915090505481565b60008073ffffffffffffffffffffffffffffffffffffffff168273ffffffffffffffffffffffffffffffffffffffff161415151561185857600080fd5b600260008373ffffffffffffffffffffffffffffffffffffffff1673ffffffffffffffffffffffffffffffffffffffff168152602001908152602001600020549050919050565b6118de336040805190810160405280600581526020017f61646d696e000000000000000000000000000000000000000000000000000000815250610f48565b6118e882826122b1565b5050565b6118f4612b58565b60058054600181600116156101000203166002900480601f01602080910402602001604051908101604052809291908181526020018280546001816001161561010002031660029004801561198a5780601f1061195f5761010080835404028352916020019161198a565b820191906000526020600020905b81548152906001019060200180831161196d57829003601f168201915b5050505050905090565b3373ffffffffffffffffffffffffffffffffffffffff168273ffffffffffffffffffffffffffffffffffffffff16141515156119cf57600080fd5b80600360003373ffffffffffffffffffffffffffffffffffffffff1673ffffffffffffffffffffffffffffffffffffffff16815260200190815260200160002060008473ffffffffffffffffffffffffffffffffffffffff1673ffffffffffffffffffffffffffffffffffffffff16815260200190815260200160002060006101000a81548160ff0219169083151502179055508173ffffffffffffffffffffffffffffffffffffffff163373ffffffffffffffffffffffffffffffffffffffff167f17307eab39ab6107e8899845ad3d59bd9653f200f220920489ca2b5937696c3183604051808215151515815260200191505060405180910390a35050565b611b0f336040805190810160405280600581526020017f61646d696e000000000000000000000000000000000000000000000000000000815250610f48565b611b198282612402565b5050565b81611b283382611d70565b1515611b3357600080fd5b611b3e8585856110bf565b611b4a85858585612553565b1515611b5557600080fd5b5050505050565b611b64612b58565b611b6d8261159e565b1515611b7857600080fd5b600a60008381526020019081526020016000208054600181600116156101000203166002900480601f016020809104026020016040519081016040528092919081815260200182805460018160011615610100020316600290048015611c1f5780601f10611bf457610100808354040283529160200191611c1f565b820191906000526020600020905b815481529060010190602001808311611c0257829003601f168201915b50505050509050919050565b6040805190810160405280600581526020017f61646d696e00000000000000000000000000000000000000000000000000000081525081565b6000600360008473ffffffffffffffffffffffffffffffffffffffff1673ffffffffffffffffffffffffffffffffffffffff16815260200190815260200160002060008373ffffffffffffffffffffffffffffffffffffffff1673ffffffffffffffffffffffffffffffffffffffff16815260200190815260200160002060009054906101000a900460ff16905092915050565b60105481565b611d088282611d17565b1515611d1357600080fd5b5050565b60008260000160008373ffffffffffffffffffffffffffffffffffffffff1673ffffffffffffffffffffffffffffffffffffffff16815260200190815260200160002060009054906101000a900460ff16905092915050565b600080611d7c836116e0565b90508073ffffffffffffffffffffffffffffffffffffffff168473ffffffffffffffffffffffffffffffffffffffff161480611deb57508373ffffffffffffffffffffffffffffffffffffffff16611dd384610d45565b73ffffffffffffffffffffffffffffffffffffffff16145b80611dfc5750611dfb8185611c64565b5b91505092915050565b8173ffffffffffffffffffffffffffffffffffffffff16611e25826116e0565b73ffffffffffffffffffffffffffffffffffffffff16141515611e4757600080fd5b600073ffffffffffffffffffffffffffffffffffffffff166001600083815260200190815260200160002060009054906101000a900473ffffffffffffffffffffffffffffffffffffffff1673ffffffffffffffffffffffffffffffffffffffff16141515611f6a5760006001600083815260200190815260200160002060006101000a81548173ffffffffffffffffffffffffffffffffffffffff021916908373ffffffffffffffffffffffffffffffffffffffff160217905550600073ffffffffffffffffffffffffffffffffffffffff168273ffffffffffffffffffffffffffffffffffffffff167f8c5be1e5ebec7d5bd14f71427d1e84f3dd0314c0f7b2291e5b200ac8c7c3b925836040518082815260200191505060405180910390a35b5050565b6000806000611f7d858561271c565b60076000858152602001908152602001600020549250611fe96001600660008873ffffffffffffffffffffffffffffffffffffffff1673ffffffffffffffffffffffffffffffffffffffff1681526020019081526020016000208054905061284a90919063ffffffff16565b9150600660008673ffffffffffffffffffffffffffffffffffffffff1673ffffffffffffffffffffffffffffffffffffffff1681526020019081526020016000208281548110151561203757fe5b906000526020600020900154905080600660008773ffffffffffffffffffffffffffffffffffffffff1673ffffffffffffffffffffffffffffffffffffffff1681526020019081526020016000208481548110151561209257fe5b9060005260206000209001819055506000600660008773ffffffffffffffffffffffffffffffffffffffff1673ffffffffffffffffffffffffffffffffffffffff168152602001908152602001600020838154811015156120ef57fe5b906000526020600020900181905550600660008673ffffffffffffffffffffffffffffffffffffffff1673ffffffffffffffffffffffffffffffffffffffff1681526020019081526020016000208054809190600190036121509190612bd8565b50600060076000868152602001908152602001600020819055508260076000838152602001908152602001600020819055505050505050565b60006121958383612863565b600660008473ffffffffffffffffffffffffffffffffffffffff1673ffffffffffffffffffffffffffffffffffffffff168152602001908152602001600020805490509050600660008473ffffffffffffffffffffffffffffffffffffffff1673ffffffffffffffffffffffffffffffffffffffff168152602001908152602001600020805480600101828161222b9190612c04565b916000526020600020900160008490919091505550806007600084815260200190815260200160002081905550505050565b61226782826129bb565b6008805490506009600083815260200190815260200160002081905550600880548060010182816122989190612c04565b9160005260206000209001600083909190915055505050565b61232e82600b836040518082805190602001908083835b6020831015156122ed57805182526020820191506020810190506020830392506122c8565b6001836020036101000a0380198251168184511680821785525050505050509050019150509081526020016040518091039020612a6b90919063ffffffff16565b7fd211483f91fc6eff862467f8de606587a30c8fc9981056f051b897a418df803a8282604051808373ffffffffffffffffffffffffffffffffffffffff1673ffffffffffffffffffffffffffffffffffffffff16815260200180602001828103825283818151815260200191508051906020019080838360005b838110156123c35780820151818401526020810190506123a8565b50505050905090810190601f1680156123f05780820380516001836020036101000a031916815260200191505b50935050505060405180910390a15050565b61247f82600b836040518082805190602001908083835b60208310151561243e5780518252602082019150602081019050602083039250612419565b6001836020036101000a0380198251168184511680821785525050505050509050019150509081526020016040518091039020612ac990919063ffffffff16565b7fbfec83d64eaa953f2708271a023ab9ee82057f8f3578d548c1a4ba0b5b7004898282604051808373ffffffffffffffffffffffffffffffffffffffff1673ffffffffffffffffffffffffffffffffffffffff16815260200180602001828103825283818151815260200191508051906020019080838360005b838110156125145780820151818401526020810190506124f9565b50505050905090810190601f1680156125415780820380516001836020036101000a031916815260200191505b50935050505060405180910390a15050565b6000806125758573ffffffffffffffffffffffffffffffffffffffff16612b27565b15156125845760019150612713565b8473ffffffffffffffffffffffffffffffffffffffff1663f0b9e5ba8786866040518463ffffffff167c0100000000000000000000000000000000000000000000000000000000028152600401808473ffffffffffffffffffffffffffffffffffffffff1673ffffffffffffffffffffffffffffffffffffffff16815260200183815260200180602001828103825283818151815260200191508051906020019080838360005b8381101561264657808201518184015260208101905061262b565b50505050905090810190601f1680156126735780820380516001836020036101000a031916815260200191505b50945050505050602060405180830381600087803b151561269357600080fd5b5af115156126a057600080fd5b50505060405180519050905063f0b9e5ba7c0100000000000000000000000000000000000000000000000000000000027bffffffffffffffffffffffffffffffffffffffffffffffffffffffff1916817bffffffffffffffffffffffffffffffffffffffffffffffffffffffff19161491505b50949350505050565b8173ffffffffffffffffffffffffffffffffffffffff1661273c826116e0565b73ffffffffffffffffffffffffffffffffffffffff1614151561275e57600080fd5b6127b16001600260008573ffffffffffffffffffffffffffffffffffffffff1673ffffffffffffffffffffffffffffffffffffffff1681526020019081526020016000205461284a90919063ffffffff16565b600260008473ffffffffffffffffffffffffffffffffffffffff1673ffffffffffffffffffffffffffffffffffffffff16815260200190815260200160002081905550600080600083815260200190815260200160002060006101000a81548173ffffffffffffffffffffffffffffffffffffffff021916908373ffffffffffffffffffffffffffffffffffffffff1602179055505050565b600082821115151561285857fe5b818303905092915050565b600073ffffffffffffffffffffffffffffffffffffffff1660008083815260200190815260200160002060009054906101000a900473ffffffffffffffffffffffffffffffffffffffff1673ffffffffffffffffffffffffffffffffffffffff161415156128d057600080fd5b8160008083815260200190815260200160002060006101000a81548173ffffffffffffffffffffffffffffffffffffffff021916908373ffffffffffffffffffffffffffffffffffffffff1602179055506129746001600260008573ffffffffffffffffffffffffffffffffffffffff1673ffffffffffffffffffffffffffffffffffffffff16815260200190815260200160002054612b3a90919063ffffffff16565b600260008473ffffffffffffffffffffffffffffffffffffffff1673ffffffffffffffffffffffffffffffffffffffff168152602001908152602001600020819055505050565b600073ffffffffffffffffffffffffffffffffffffffff168273ffffffffffffffffffffffffffffffffffffffff16141515156129f757600080fd5b612a018282612189565b8173ffffffffffffffffffffffffffffffffffffffff16600073ffffffffffffffffffffffffffffffffffffffff167fddf252ad1be2c89b69c2b068fc378daa952ba7f163c4a11628f55a4df523b3ef836040518082815260200191505060405180910390a35050565b60008260000160008373ffffffffffffffffffffffffffffffffffffffff1673ffffffffffffffffffffffffffffffffffffffff16815260200190815260200160002060006101000a81548160ff0219169083151502179055505050565b60018260000160008373ffffffffffffffffffffffffffffffffffffffff1673ffffffffffffffffffffffffffffffffffffffff16815260200190815260200160002060006101000a81548160ff0219169083151502179055505050565b600080823b905060008111915050919050565b6000808284019050838110151515612b4e57fe5b8091505092915050565b602060405190810160405280600081525090565b606060405190810160405280600067ffffffffffffffff168152602001600067ffffffffffffffff168152602001600067ffffffffffffffff1681525090565b815481835581811511612bd357818360005260206000209182019101612bd29190612c30565b5b505050565b815481835581811511612bff57818360005260206000209182019101612bfe9190612ca0565b5b505050565b815481835581811511612c2b57818360005260206000209182019101612c2a9190612ca0565b5b505050565b612c9d91905b80821115612c9957600080820160006101000a81549067ffffffffffffffff02191690556000820160086101000a81549067ffffffffffffffff02191690556000820160106101000a81549067ffffffffffffffff021916905550600101612c36565b5090565b90565b612cc291905b80821115612cbe576000816000905550600101612ca6565b5090565b905600a165627a7a7230582054cab3b4c4c02dd0e9f00300af678c4e9ad1649dada21898e31f0efeb9b1b9dd0029",
  "source": "pragma solidity ^0.4.21;\n\nimport \"zeppelin-solidity/contracts/token/ERC721/ERC721Token.sol\";\nimport \"zeppelin-solidity/contracts/math/Math.sol\";\nimport \"./ButtonClickGameControls.sol\";\n\ncontract ButtonClickGame is ERC721Token(\"The Ether Button\", \"Butt\"), ButtonClickGameControls {\n\n    /**\n     * @dev This event is fired whenever a user clicks on a button, thereby creating a click\n     * and resetting our block timer\n     */\n    event ButtonClick(address indexed owner, uint256 tokenId);\n\n    /**\n     * Defines the main struct for button clicks, which contains all relevant metadata about\n     * the click action.\n     *\n     * Please ensure that alterations to this struct respect the byte-packing rules:\n     * http://solidity.readthedocs.io/en/develop/miscellaneous.html\n     */\n    struct ButtonClickMetadata {\n        // Tracks how far the user was away from the desired block (0 is optimal)\n        uint64 blocksAwayFromDesiredBlock;\n\n        // Defines the \"generation\" of this game. This gets incremented whenever the button is clicked\n        // at the desired block\n        uint64 clickGeneration;\n\n        // The timestamp from the block when this click occurred\n        uint64 clickTime;\n    }\n\n    /**\n     * An array which contains a complete list of of ButtonClickMetadata, each of which\n     * represents a unique time in which the button was clicked. The ID of each click\n     * event is an index into this array\n     */\n    ButtonClickMetadata[] clicks;\n\n    /**\n     * Defines the current game generation. Users can play again whenever this increments.\n     * Note: This always starts with generation 1\n     *\n     * http://solidity.readthedocs.io/en/develop/contracts.html?#visibility-and-getters\n     */\n    uint256 public gameGeneration = 1;\n\n    /**\n     * Defines the block number at which a click will \"win\"\n     *\n     * http://solidity.readthedocs.io/en/develop/contracts.html?#visibility-and-getters\n     */\n    uint256 public blockNumberForVictory;\n\n    /**\n     * A mapping from a specific address to which generation the user last clicked the button\n     * during. Regardless of whether a user transfers his/her click token, we only allow a \n     * single button click per game generation\n     */\n    mapping (address => uint256) public addressLastClickedForGeneration;\n\n    /**\n     * A mapping from the number \"remaining blocks\" (eg 19 blocks left) to the number of clicks\n     * clicks that occurred at this \"remaining blocks\" total\n     */\n    mapping (uint8 => uint256) public numberOfClicksAtBlocksRemaining;\n\n    /**\n     * @dev This method contains the core game logic, tracking a distinct button \"click\" event and \n     * saving all relevant metadata associated with it. This method will generate both a ButtonClick \n     * and Transfer event. Callers can ONLY call this method a single time per game generation.\n     *\n     * @return the id in our array, which is the latest click\n     */\n    function clickButton() external isStarted payable returns (uint256) {\n        // Avoid spamming the game with a minimum fee\n        require(msg.value >= minimumFee);\n\n        // Don't allow the game to be played indefinitely\n        require(gameGeneration <= 65535);\n\n        // Require that the user has never click the button previously this round\n        require(addressLastClickedForGeneration[msg.sender] < gameGeneration);\n\n        // Immediately bump the user's last button click to this generation\n        addressLastClickedForGeneration[msg.sender] = gameGeneration;\n\n        // Ensure that 0 is the effective floor for elapsed blocks\n        // Math.max256 won't work due to integer underflow, which will give a huge number if block.number > blockNumberForVictory\n        uint256 _blocksAwayFromDesiredBlock;\n        if (blockNumberForVictory > block.number) {\n            _blocksAwayFromDesiredBlock = blockNumberForVictory - block.number;\n        } else {\n            _blocksAwayFromDesiredBlock = 0;\n        }\n\n        // Keep the local value before possibly incrementing it in the victory condition\n        uint256 _generation = gameGeneration;\n\n        // Victory condition!!\n        if (_blocksAwayFromDesiredBlock == 0) {\n            gameGeneration++;\n        }\n\n        // Increment how many clicks have occurred at this number\n        numberOfClicksAtBlocksRemaining[uint8(_blocksAwayFromDesiredBlock)] += 1;\n\n        // Update the blockNumber that is required for the next victory condition\n        blockNumberForVictory = block.number + requiredBlocksElapsedForVictory;\n\n        // Create a new click\n        ButtonClickMetadata memory _click = ButtonClickMetadata({\n            blocksAwayFromDesiredBlock: uint64(_blocksAwayFromDesiredBlock),\n            clickGeneration: uint64(_generation),\n            clickTime: uint64(now)\n        });\n        uint256 newClickId = clicks.push(_click) - 1;\n\n        // Emit the click event\n        emit ButtonClick(msg.sender, newClickId);\n\n        // Formally mint this token and transfer ownership\n        _mint(msg.sender, newClickId);\n\n        return newClickId;\n    }\n\n    /**\n     * Fetches information about a specific click event\n     * \n     * @param _id The ID of a specific button click token\n     */\n    function getClickMetadata(uint256 _id) external view returns (\n        uint256 blocksAwayFromDesiredBlock,\n        uint256 clickTime,\n        uint256 clickGeneration,\n        address owner\n    ) {\n        ButtonClickMetadata storage metadata = clicks[_id];\n\n        blocksAwayFromDesiredBlock = uint256(metadata.blocksAwayFromDesiredBlock);\n        clickTime = uint256(metadata.clickTime);\n        clickGeneration = uint256(metadata.clickGeneration);\n        owner = ownerOf(_id);\n    }\n\n}",
  "sourcePath": "/Users/williambaumann/workspace/Ethereum/theetherbutton/contracts/ButtonClickGame.sol",
  "compiler": {
    "name": "solc",
    "version": "0.4.21+commit.dfe3193c.Emscripten.clang"
  },
  "schemaVersion": "2.0.0",
  "updatedAt": "2018-05-31T18:04:48.278Z"
}