{
  "contractName": "ButtonClickGameContract",
  "abi": [
    {
      "constant": true,
      "inputs": [],
      "name": "name",
      "outputs": [
        {
          "name": "",
          "type": "string"
        }
      ],
      "payable": false,
      "stateMutability": "view",
      "type": "function"
    },
    {
      "constant": true,
      "inputs": [
        {
          "name": "_tokenId",
          "type": "uint256"
        }
      ],
      "name": "getApproved",
      "outputs": [
        {
          "name": "",
          "type": "address"
        }
      ],
      "payable": false,
      "stateMutability": "view",
      "type": "function"
    },
    {
      "constant": false,
      "inputs": [
        {
          "name": "_to",
          "type": "address"
        },
        {
          "name": "_tokenId",
          "type": "uint256"
        }
      ],
      "name": "approve",
      "outputs": [],
      "payable": false,
      "stateMutability": "nonpayable",
      "type": "function"
    },
    {
      "constant": true,
      "inputs": [
        {
          "name": "addr",
          "type": "address"
        },
        {
          "name": "roleName",
          "type": "string"
        }
      ],
      "name": "checkRole",
      "outputs": [],
      "payable": false,
      "stateMutability": "view",
      "type": "function"
    },
    {
      "constant": true,
      "inputs": [],
      "name": "totalSupply",
      "outputs": [
        {
          "name": "",
          "type": "uint256"
        }
      ],
      "payable": false,
      "stateMutability": "view",
      "type": "function"
    },
    {
      "constant": false,
      "inputs": [
        {
          "name": "_minimumFee",
          "type": "uint256"
        }
      ],
      "name": "setMinimumFee",
      "outputs": [],
      "payable": false,
      "stateMutability": "nonpayable",
      "type": "function"
    },
    {
      "constant": true,
      "inputs": [],
      "name": "minimumFee",
      "outputs": [
        {
          "name": "",
          "type": "uint256"
        }
      ],
      "payable": false,
      "stateMutability": "view",
      "type": "function"
    },
    {
      "constant": true,
      "inputs": [],
      "name": "started",
      "outputs": [
        {
          "name": "",
          "type": "bool"
        }
      ],
      "payable": false,
      "stateMutability": "view",
      "type": "function"
    },
    {
      "constant": true,
      "inputs": [
        {
          "name": "addr",
          "type": "address"
        },
        {
          "name": "roleName",
          "type": "string"
        }
      ],
      "name": "hasRole",
      "outputs": [
        {
          "name": "",
          "type": "bool"
        }
      ],
      "payable": false,
      "stateMutability": "view",
      "type": "function"
    },
    {
      "constant": false,
      "inputs": [
        {
          "name": "_from",
          "type": "address"
        },
        {
          "name": "_to",
          "type": "address"
        },
        {
          "name": "_tokenId",
          "type": "uint256"
        }
      ],
      "name": "transferFrom",
      "outputs": [],
      "payable": false,
      "stateMutability": "nonpayable",
      "type": "function"
    },
    {
      "constant": true,
      "inputs": [],
      "name": "requiredBlocksElapsedForVictory",
      "outputs": [
        {
          "name": "",
          "type": "uint256"
        }
      ],
      "payable": false,
      "stateMutability": "view",
      "type": "function"
    },
    {
      "constant": true,
      "inputs": [
        {
          "name": "",
          "type": "uint8"
        }
      ],
      "name": "numberOfClicksAtBlocksRemaining",
      "outputs": [
        {
          "name": "",
          "type": "uint256"
        }
      ],
      "payable": false,
      "stateMutability": "view",
      "type": "function"
    },
    {
      "constant": true,
      "inputs": [
        {
          "name": "_owner",
          "type": "address"
        },
        {
          "name": "_index",
          "type": "uint256"
        }
      ],
      "name": "tokenOfOwnerByIndex",
      "outputs": [
        {
          "name": "",
          "type": "uint256"
        }
      ],
      "payable": false,
      "stateMutability": "view",
      "type": "function"
    },
    {
      "constant": true,
      "inputs": [],
      "name": "blockNumberForVictory",
      "outputs": [
        {
          "name": "",
          "type": "uint256"
        }
      ],
      "payable": false,
      "stateMutability": "view",
      "type": "function"
    },
    {
      "constant": false,
      "inputs": [],
      "name": "clickButton",
      "outputs": [
        {
          "name": "",
          "type": "uint256"
        }
      ],
      "payable": true,
      "stateMutability": "payable",
      "type": "function"
    },
    {
      "constant": false,
      "inputs": [
        {
          "name": "_requiredBlocksElapsedForVictory",
          "type": "uint256"
        }
      ],
      "name": "setRequiredBlocksElapsedForVictory",
      "outputs": [],
      "payable": false,
      "stateMutability": "nonpayable",
      "type": "function"
    },
    {
      "constant": false,
      "inputs": [
        {
          "name": "_from",
          "type": "address"
        },
        {
          "name": "_to",
          "type": "address"
        },
        {
          "name": "_tokenId",
          "type": "uint256"
        }
      ],
      "name": "safeTransferFrom",
      "outputs": [],
      "payable": false,
      "stateMutability": "nonpayable",
      "type": "function"
    },
    {
      "constant": true,
      "inputs": [
        {
          "name": "_tokenId",
          "type": "uint256"
        }
      ],
      "name": "exists",
      "outputs": [
        {
          "name": "",
          "type": "bool"
        }
      ],
      "payable": false,
      "stateMutability": "view",
      "type": "function"
    },
    {
      "constant": true,
      "inputs": [
        {
          "name": "_index",
          "type": "uint256"
        }
      ],
      "name": "tokenByIndex",
      "outputs": [
        {
          "name": "",
          "type": "uint256"
        }
      ],
      "payable": false,
      "stateMutability": "view",
      "type": "function"
    },
    {
      "constant": false,
      "inputs": [],
      "name": "withdrawBalance",
      "outputs": [],
      "payable": false,
      "stateMutability": "nonpayable",
      "type": "function"
    },
    {
      "constant": true,
      "inputs": [
        {
          "name": "_tokenId",
          "type": "uint256"
        }
      ],
      "name": "ownerOf",
      "outputs": [
        {
          "name": "",
          "type": "address"
        }
      ],
      "payable": false,
      "stateMutability": "view",
      "type": "function"
    },
    {
      "constant": true,
      "inputs": [
        {
          "name": "_id",
          "type": "uint256"
        }
      ],
      "name": "getClickMetadata",
      "outputs": [
        {
          "name": "blocksAwayFromDesiredBlock",
          "type": "uint256"
        },
        {
          "name": "clickTime",
          "type": "uint256"
        },
        {
          "name": "clickGeneration",
          "type": "uint256"
        },
        {
          "name": "owner",
          "type": "address"
        }
      ],
      "payable": false,
      "stateMutability": "view",
      "type": "function"
    },
    {
      "constant": true,
      "inputs": [
        {
          "name": "",
          "type": "address"
        }
      ],
      "name": "addressLastClickedForGeneration",
      "outputs": [
        {
          "name": "",
          "type": "uint256"
        }
      ],
      "payable": false,
      "stateMutability": "view",
      "type": "function"
    },
    {
      "constant": true,
      "inputs": [
        {
          "name": "_owner",
          "type": "address"
        }
      ],
      "name": "balanceOf",
      "outputs": [
        {
          "name": "",
          "type": "uint256"
        }
      ],
      "payable": false,
      "stateMutability": "view",
      "type": "function"
    },
    {
      "constant": false,
      "inputs": [
        {
          "name": "addr",
          "type": "address"
        },
        {
          "name": "roleName",
          "type": "string"
        }
      ],
      "name": "adminRemoveRole",
      "outputs": [],
      "payable": false,
      "stateMutability": "nonpayable",
      "type": "function"
    },
    {
      "constant": true,
      "inputs": [],
      "name": "symbol",
      "outputs": [
        {
          "name": "",
          "type": "string"
        }
      ],
      "payable": false,
      "stateMutability": "view",
      "type": "function"
    },
    {
      "constant": false,
      "inputs": [
        {
          "name": "_to",
          "type": "address"
        },
        {
          "name": "_approved",
          "type": "bool"
        }
      ],
      "name": "setApprovalForAll",
      "outputs": [],
      "payable": false,
      "stateMutability": "nonpayable",
      "type": "function"
    },
    {
      "constant": false,
      "inputs": [
        {
          "name": "addr",
          "type": "address"
        },
        {
          "name": "roleName",
          "type": "string"
        }
      ],
      "name": "adminAddRole",
      "outputs": [],
      "payable": false,
      "stateMutability": "nonpayable",
      "type": "function"
    },
    {
      "constant": false,
      "inputs": [
        {
          "name": "_from",
          "type": "address"
        },
        {
          "name": "_to",
          "type": "address"
        },
        {
          "name": "_tokenId",
          "type": "uint256"
        },
        {
          "name": "_data",
          "type": "bytes"
        }
      ],
      "name": "safeTransferFrom",
      "outputs": [],
      "payable": false,
      "stateMutability": "nonpayable",
      "type": "function"
    },
    {
      "constant": true,
      "inputs": [
        {
          "name": "_tokenId",
          "type": "uint256"
        }
      ],
      "name": "tokenURI",
      "outputs": [
        {
          "name": "",
          "type": "string"
        }
      ],
      "payable": false,
      "stateMutability": "view",
      "type": "function"
    },
    {
      "constant": true,
      "inputs": [],
      "name": "ROLE_ADMIN",
      "outputs": [
        {
          "name": "",
          "type": "string"
        }
      ],
      "payable": false,
      "stateMutability": "view",
      "type": "function"
    },
    {
      "constant": true,
      "inputs": [
        {
          "name": "_owner",
          "type": "address"
        },
        {
          "name": "_operator",
          "type": "address"
        }
      ],
      "name": "isApprovedForAll",
      "outputs": [
        {
          "name": "",
          "type": "bool"
        }
      ],
      "payable": false,
      "stateMutability": "view",
      "type": "function"
    },
    {
      "constant": true,
      "inputs": [],
      "name": "gameGeneration",
      "outputs": [
        {
          "name": "",
          "type": "uint256"
        }
      ],
      "payable": false,
      "stateMutability": "view",
      "type": "function"
    },
    {
      "inputs": [],
      "payable": false,
      "stateMutability": "nonpayable",
      "type": "constructor"
    },
    {
      "anonymous": false,
      "inputs": [
        {
          "indexed": true,
          "name": "owner",
          "type": "address"
        },
        {
          "indexed": false,
          "name": "tokenId",
          "type": "uint256"
        }
      ],
      "name": "ButtonClick",
      "type": "event"
    },
    {
      "anonymous": false,
      "inputs": [
        {
          "indexed": false,
          "name": "addr",
          "type": "address"
        },
        {
          "indexed": false,
          "name": "roleName",
          "type": "string"
        }
      ],
      "name": "RoleAdded",
      "type": "event"
    },
    {
      "anonymous": false,
      "inputs": [
        {
          "indexed": false,
          "name": "addr",
          "type": "address"
        },
        {
          "indexed": false,
          "name": "roleName",
          "type": "string"
        }
      ],
      "name": "RoleRemoved",
      "type": "event"
    },
    {
      "anonymous": false,
      "inputs": [
        {
          "indexed": true,
          "name": "_from",
          "type": "address"
        },
        {
          "indexed": true,
          "name": "_to",
          "type": "address"
        },
        {
          "indexed": false,
          "name": "_tokenId",
          "type": "uint256"
        }
      ],
      "name": "Transfer",
      "type": "event"
    },
    {
      "anonymous": false,
      "inputs": [
        {
          "indexed": true,
          "name": "_owner",
          "type": "address"
        },
        {
          "indexed": true,
          "name": "_approved",
          "type": "address"
        },
        {
          "indexed": false,
          "name": "_tokenId",
          "type": "uint256"
        }
      ],
      "name": "Approval",
      "type": "event"
    },
    {
      "anonymous": false,
      "inputs": [
        {
          "indexed": true,
          "name": "_owner",
          "type": "address"
        },
        {
          "indexed": true,
          "name": "_operator",
          "type": "address"
        },
        {
          "indexed": false,
          "name": "_approved",
          "type": "bool"
        }
      ],
      "name": "ApprovalForAll",
      "type": "event"
    },
    {
      "constant": false,
      "inputs": [],
      "name": "startGame",
      "outputs": [],
      "payable": false,
      "stateMutability": "nonpayable",
      "type": "function"
    },
    {
      "constant": false,
      "inputs": [],
      "name": "sendDeposit",
      "outputs": [],
      "payable": true,
      "stateMutability": "payable",
      "type": "function"
    }
  ],
  "bytecode": "0x60606040526000600c60006101000a81548160ff021916908315150217905550600160105534156200003057600080fd5b6040805190810160405280601081526020017f54686520457468657220427574746f6e000000000000000000000000000000008152506040805190810160405280600481526020017f42757474000000000000000000000000000000000000000000000000000000008152508160049080519060200190620000b4929190620003af565b508060059080519060200190620000cd929190620003af565b50505062000125336040805190810160405280600581526020017f61646d696e000000000000000000000000000000000000000000000000000000815250620001eb64010000000002620024bc176401000000009004565b6200017a336040805190810160405280600581526020017f61646d696e000000000000000000000000000000000000000000000000000000815250620001eb64010000000002620024bc176401000000009004565b620001cf336040805190810160405280600781526020017f66696e616e636500000000000000000000000000000000000000000000000000815250620001eb64010000000002620024bc176401000000009004565b6601c6bf52634000600d819055506014600e819055506200045e565b6200027a82600b836040518082805190602001908083835b6020831015156200022a578051825260208201915060208101905060208303925062000203565b6001836020036101000a0380198251168184511680821785525050505050509050019150509081526020016040518091039020620003516401000000000262002b83179091906401000000009004565b7fbfec83d64eaa953f2708271a023ab9ee82057f8f3578d548c1a4ba0b5b7004898282604051808373ffffffffffffffffffffffffffffffffffffffff1673ffffffffffffffffffffffffffffffffffffffff16815260200180602001828103825283818151815260200191508051906020019080838360005b8381101562000311578082015181840152602081019050620002f4565b50505050905090810190601f1680156200033f5780820380516001836020036101000a031916815260200191505b50935050505060405180910390a15050565b60018260000160008373ffffffffffffffffffffffffffffffffffffffff1673ffffffffffffffffffffffffffffffffffffffff16815260200190815260200160002060006101000a81548160ff0219169083151502179055505050565b828054600181600116156101000203166002900490600052602060002090601f016020900481019282601f10620003f257805160ff191683800117855562000423565b8280016001018555821562000423579182015b828111156200042257825182559160200191906001019062000405565b5b50905062000432919062000436565b5090565b6200045b91905b80821115620004575760008160009055506001016200043d565b5090565b90565b612dab806200046e6000396000f3006060604052600436106101b7576000357c0100000000000000000000000000000000000000000000000000000000900463ffffffff16806306cb4bcd146101bc57806306fdde03146101c6578063081812fc14610254578063095ea7b3146102b75780630988ca8c146102f957806318160ddd14610375578063182a75061461039e5780631a7626e7146103c15780631f2698ab146103ea578063217fe6c61461041757806323b872dd146104ab57806324fa6f3b1461050c57806325c82f86146105355780632f745c591461056f5780633a3eda84146105c55780633bd0a6e5146105ee5780633ccb25a21461060c57806342842e0e1461062f5780634f558e79146106905780634f6ccce7146106cb5780635fd8c710146107025780636352211e1461071757806367b55bf91461077a578063706184b2146107f257806370a082311461083f57806388cee87e1461088c57806395d89b4114610908578063a22cb46514610996578063b25fa92c146109da578063b88d4fde14610a56578063c87b56dd14610afa578063d391014b14610b96578063d65ab5f214610c24578063e985e9c514610c39578063eb34967a14610ca9575b600080fd5b6101c4610cd2565b005b34156101d157600080fd5b6101d9610cd4565b6040518080602001828103825283818151815260200191508051906020019080838360005b838110156102195780820151818401526020810190506101fe565b50505050905090810190601f1680156102465780820380516001836020036101000a031916815260200191505b509250505060405180910390f35b341561025f57600080fd5b6102756004808035906020019091905050610d7c565b604051808273ffffffffffffffffffffffffffffffffffffffff1673ffffffffffffffffffffffffffffffffffffffff16815260200191505060405180910390f35b34156102c257600080fd5b6102f7600480803573ffffffffffffffffffffffffffffffffffffffff16906020019091908035906020019091905050610db9565b005b341561030457600080fd5b610373600480803573ffffffffffffffffffffffffffffffffffffffff1690602001909190803590602001908201803590602001908080601f01602080910402602001604051908101604052809392919081815260200183838082843782019150505050505091905050610f7f565b005b341561038057600080fd5b610388611000565b6040518082815260200191505060405180910390f35b34156103a957600080fd5b6103bf600480803590602001909190505061100d565b005b34156103cc57600080fd5b6103d4611056565b6040518082815260200191505060405180910390f35b34156103f557600080fd5b6103fd61105c565b604051808215151515815260200191505060405180910390f35b341561042257600080fd5b610491600480803573ffffffffffffffffffffffffffffffffffffffff1690602001909190803590602001908201803590602001908080601f0160208091040260200160405190810160405280939291908181526020018383808284378201915050505050509190505061106f565b604051808215151515815260200191505060405180910390f35b34156104b657600080fd5b61050a600480803573ffffffffffffffffffffffffffffffffffffffff1690602001909190803573ffffffffffffffffffffffffffffffffffffffff169060200190919080359060200190919050506110f6565b005b341561051757600080fd5b61051f61120d565b6040518082815260200191505060405180910390f35b341561054057600080fd5b610559600480803560ff16906020019091905050611213565b6040518082815260200191505060405180910390f35b341561057a57600080fd5b6105af600480803573ffffffffffffffffffffffffffffffffffffffff1690602001909190803590602001909190505061122b565b6040518082815260200191505060405180910390f35b34156105d057600080fd5b6105d86112a3565b6040518082815260200191505060405180910390f35b6105f66112a9565b6040518082815260200191505060405180910390f35b341561061757600080fd5b61062d6004808035906020019091905050611554565b005b341561063a57600080fd5b61068e600480803573ffffffffffffffffffffffffffffffffffffffff1690602001909190803573ffffffffffffffffffffffffffffffffffffffff1690602001909190803590602001909190505061159d565b005b341561069b57600080fd5b6106b160048080359060200190919050506115d5565b604051808215151515815260200191505060405180910390f35b34156106d657600080fd5b6106ec6004808035906020019091905050611646565b6040518082815260200191505060405180910390f35b341561070d57600080fd5b61071561167f565b005b341561072257600080fd5b6107386004808035906020019091905050611717565b604051808273ffffffffffffffffffffffffffffffffffffffff1673ffffffffffffffffffffffffffffffffffffffff16815260200191505060405180910390f35b341561078557600080fd5b61079b6004808035906020019091905050611794565b604051808581526020018481526020018381526020018273ffffffffffffffffffffffffffffffffffffffff1673ffffffffffffffffffffffffffffffffffffffff16815260200194505050505060405180910390f35b34156107fd57600080fd5b610829600480803573ffffffffffffffffffffffffffffffffffffffff1690602001909190505061183a565b6040518082815260200191505060405180910390f35b341561084a57600080fd5b610876600480803573ffffffffffffffffffffffffffffffffffffffff16906020019091905050611852565b6040518082815260200191505060405180910390f35b341561089757600080fd5b610906600480803573ffffffffffffffffffffffffffffffffffffffff1690602001909190803590602001908201803590602001908080601f016020809104026020016040519081016040528093929190818152602001838380828437820191505050505050919050506118d6565b005b341561091357600080fd5b61091b611923565b6040518080602001828103825283818151815260200191508051906020019080838360005b8381101561095b578082015181840152602081019050610940565b50505050905090810190601f1680156109885780820380516001836020036101000a031916815260200191505b509250505060405180910390f35b34156109a157600080fd5b6109d8600480803573ffffffffffffffffffffffffffffffffffffffff1690602001909190803515159060200190919050506119cb565b005b34156109e557600080fd5b610a54600480803573ffffffffffffffffffffffffffffffffffffffff1690602001909190803590602001908201803590602001908080601f01602080910402602001604051908101604052809392919081815260200183838082843782019150505050505091905050611b07565b005b3415610a6157600080fd5b610af8600480803573ffffffffffffffffffffffffffffffffffffffff1690602001909190803573ffffffffffffffffffffffffffffffffffffffff1690602001909190803590602001909190803590602001908201803590602001908080601f01602080910402602001604051908101604052809392919081815260200183838082843782019150505050505091905050611b54565b005b3415610b0557600080fd5b610b1b6004808035906020019091905050611b93565b6040518080602001828103825283818151815260200191508051906020019080838360005b83811015610b5b578082015181840152602081019050610b40565b50505050905090810190601f168015610b885780820380516001836020036101000a031916815260200191505b509250505060405180910390f35b3415610ba157600080fd5b610ba9611c62565b6040518080602001828103825283818151815260200191508051906020019080838360005b83811015610be9578082015181840152602081019050610bce565b50505050905090810190601f168015610c165780820380516001836020036101000a031916815260200191505b509250505060405180910390f35b3415610c2f57600080fd5b610c37611c9b565b005b3415610c4457600080fd5b610c8f600480803573ffffffffffffffffffffffffffffffffffffffff1690602001909190803573ffffffffffffffffffffffffffffffffffffffff16906020019091905050611d1e565b604051808215151515815260200191505060405180910390f35b3415610cb457600080fd5b610cbc611db2565b6040518082815260200191505060405180910390f35b565b610cdc612c12565b60048054600181600116156101000203166002900480601f016020809104026020016040519081016040528092919081815260200182805460018160011615610100020316600290048015610d725780601f10610d4757610100808354040283529160200191610d72565b820191906000526020600020905b815481529060010190602001808311610d5557829003601f168201915b5050505050905090565b60006001600083815260200190815260200160002060009054906101000a900473ffffffffffffffffffffffffffffffffffffffff169050919050565b6000610dc482611717565b90508073ffffffffffffffffffffffffffffffffffffffff168373ffffffffffffffffffffffffffffffffffffffff1614151515610e0157600080fd5b8073ffffffffffffffffffffffffffffffffffffffff163373ffffffffffffffffffffffffffffffffffffffff161480610e415750610e408133611d1e565b5b1515610e4c57600080fd5b600073ffffffffffffffffffffffffffffffffffffffff16610e6d83610d7c565b73ffffffffffffffffffffffffffffffffffffffff16141580610ebd5750600073ffffffffffffffffffffffffffffffffffffffff168373ffffffffffffffffffffffffffffffffffffffff1614155b15610f7a57826001600084815260200190815260200160002060006101000a81548173ffffffffffffffffffffffffffffffffffffffff021916908373ffffffffffffffffffffffffffffffffffffffff1602179055508273ffffffffffffffffffffffffffffffffffffffff168173ffffffffffffffffffffffffffffffffffffffff167f8c5be1e5ebec7d5bd14f71427d1e84f3dd0314c0f7b2291e5b200ac8c7c3b925846040518082815260200191505060405180910390a35b505050565b610ffc82600b836040518082805190602001908083835b602083101515610fbb5780518252602082019150602081019050602083039250610f96565b6001836020036101000a0380198251168184511680821785525050505050509050019150509081526020016040518091039020611db890919063ffffffff16565b5050565b6000600880549050905090565b61104c336040805190810160405280600781526020017f66696e616e636500000000000000000000000000000000000000000000000000815250610f7f565b80600d8190555050565b600d5481565b600c60009054906101000a900460ff1681565b60006110ee83600b846040518082805190602001908083835b6020831015156110ad5780518252602082019150602081019050602083039250611088565b6001836020036101000a0380198251168184511680821785525050505050509050019150509081526020016040518091039020611dd190919063ffffffff16565b905092915050565b806111013382611e2a565b151561110c57600080fd5b600073ffffffffffffffffffffffffffffffffffffffff168473ffffffffffffffffffffffffffffffffffffffff161415151561114857600080fd5b600073ffffffffffffffffffffffffffffffffffffffff168373ffffffffffffffffffffffffffffffffffffffff161415151561118457600080fd5b61118e8483611ebf565b6111988483612028565b6111a28383612243565b8273ffffffffffffffffffffffffffffffffffffffff168473ffffffffffffffffffffffffffffffffffffffff167fddf252ad1be2c89b69c2b068fc378daa952ba7f163c4a11628f55a4df523b3ef846040518082815260200191505060405180910390a350505050565b600e5481565b60136020528060005260406000206000915090505481565b600061123683611852565b8210151561124357600080fd5b600660008473ffffffffffffffffffffffffffffffffffffffff1673ffffffffffffffffffffffffffffffffffffffff1681526020019081526020016000208281548110151561128f57fe5b906000526020600020900154905092915050565b60115481565b60008060006112b6612c26565b6000600c60009054906101000a900460ff1615156112d357600080fd5b600d5434101515156112e457600080fd5b61ffff601054111515156112f757600080fd5b601054601260003373ffffffffffffffffffffffffffffffffffffffff1673ffffffffffffffffffffffffffffffffffffffff1681526020019081526020016000205410151561134657600080fd5b601054601260003373ffffffffffffffffffffffffffffffffffffffff1673ffffffffffffffffffffffffffffffffffffffff168152602001908152602001600020819055504360115411156113a257436011540393506113a7565b600093505b601054925060008414156113c8576010600081548092919060010191905055505b6001601360008660ff1660ff16815260200190815260200160002060008282540192505081905550600e5443016011819055506060604051908101604052808567ffffffffffffffff1681526020018467ffffffffffffffff1681526020014267ffffffffffffffff1681525091506001600f805480600101828161144d9190612c66565b9160005260206000209001600085909190915060008201518160000160006101000a81548167ffffffffffffffff021916908367ffffffffffffffff16021790555060208201518160000160086101000a81548167ffffffffffffffff021916908367ffffffffffffffff16021790555060408201518160000160106101000a81548167ffffffffffffffff021916908367ffffffffffffffff16021790555050500390503373ffffffffffffffffffffffffffffffffffffffff167f0691b9a8aafa3a93964a82e6102bd74f03c9bbc2506526d29528c77be24d7c0f826040518082815260200191505060405180910390a261154a3382612317565b8094505050505090565b611593336040805190810160405280600581526020017f61646d696e000000000000000000000000000000000000000000000000000000815250610f7f565b80600e8190555050565b806115a83382611e2a565b15156115b357600080fd5b6115cf8484846020604051908101604052806000815250611b54565b50505050565b60008060008084815260200190815260200160002060009054906101000a900473ffffffffffffffffffffffffffffffffffffffff169050600073ffffffffffffffffffffffffffffffffffffffff168173ffffffffffffffffffffffffffffffffffffffff161415915050919050565b6000611650611000565b8210151561165d57600080fd5b60088281548110151561166c57fe5b9060005260206000209001549050919050565b6116be336040805190810160405280600781526020017f66696e616e636500000000000000000000000000000000000000000000000000815250610f7f565b3373ffffffffffffffffffffffffffffffffffffffff166108fc3073ffffffffffffffffffffffffffffffffffffffff16319081150290604051600060405180830381858888f19350505050151561171557600080fd5b565b60008060008084815260200190815260200160002060009054906101000a900473ffffffffffffffffffffffffffffffffffffffff169050600073ffffffffffffffffffffffffffffffffffffffff168173ffffffffffffffffffffffffffffffffffffffff161415151561178b57600080fd5b80915050919050565b6000806000806000600f868154811015156117ab57fe5b906000526020600020900190508060000160009054906101000a900467ffffffffffffffff1667ffffffffffffffff1694508060000160109054906101000a900467ffffffffffffffff1667ffffffffffffffff1693508060000160089054906101000a900467ffffffffffffffff1667ffffffffffffffff16925061183086611717565b9150509193509193565b60126020528060005260406000206000915090505481565b60008073ffffffffffffffffffffffffffffffffffffffff168273ffffffffffffffffffffffffffffffffffffffff161415151561188f57600080fd5b600260008373ffffffffffffffffffffffffffffffffffffffff1673ffffffffffffffffffffffffffffffffffffffff168152602001908152602001600020549050919050565b611915336040805190810160405280600581526020017f61646d696e000000000000000000000000000000000000000000000000000000815250610f7f565b61191f828261236b565b5050565b61192b612c12565b60058054600181600116156101000203166002900480601f0160208091040260200160405190810160405280929190818152602001828054600181600116156101000203166002900480156119c15780601f10611996576101008083540402835291602001916119c1565b820191906000526020600020905b8154815290600101906020018083116119a457829003601f168201915b5050505050905090565b3373ffffffffffffffffffffffffffffffffffffffff168273ffffffffffffffffffffffffffffffffffffffff1614151515611a0657600080fd5b80600360003373ffffffffffffffffffffffffffffffffffffffff1673ffffffffffffffffffffffffffffffffffffffff16815260200190815260200160002060008473ffffffffffffffffffffffffffffffffffffffff1673ffffffffffffffffffffffffffffffffffffffff16815260200190815260200160002060006101000a81548160ff0219169083151502179055508173ffffffffffffffffffffffffffffffffffffffff163373ffffffffffffffffffffffffffffffffffffffff167f17307eab39ab6107e8899845ad3d59bd9653f200f220920489ca2b5937696c3183604051808215151515815260200191505060405180910390a35050565b611b46336040805190810160405280600581526020017f61646d696e000000000000000000000000000000000000000000000000000000815250610f7f565b611b5082826124bc565b5050565b81611b5f3382611e2a565b1515611b6a57600080fd5b611b758585856110f6565b611b818585858561260d565b1515611b8c57600080fd5b5050505050565b611b9b612c12565b611ba4826115d5565b1515611baf57600080fd5b600a60008381526020019081526020016000208054600181600116156101000203166002900480601f016020809104026020016040519081016040528092919081815260200182805460018160011615610100020316600290048015611c565780601f10611c2b57610100808354040283529160200191611c56565b820191906000526020600020905b815481529060010190602001808311611c3957829003601f168201915b50505050509050919050565b6040805190810160405280600581526020017f61646d696e00000000000000000000000000000000000000000000000000000081525081565b611cda336040805190810160405280600581526020017f61646d696e000000000000000000000000000000000000000000000000000000815250610f7f565b600c60009054906101000a900460ff16151515611cf657600080fd5b6001600c60006101000a81548160ff021916908315150217905550600e544301601181905550565b6000600360008473ffffffffffffffffffffffffffffffffffffffff1673ffffffffffffffffffffffffffffffffffffffff16815260200190815260200160002060008373ffffffffffffffffffffffffffffffffffffffff1673ffffffffffffffffffffffffffffffffffffffff16815260200190815260200160002060009054906101000a900460ff16905092915050565b60105481565b611dc28282611dd1565b1515611dcd57600080fd5b5050565b60008260000160008373ffffffffffffffffffffffffffffffffffffffff1673ffffffffffffffffffffffffffffffffffffffff16815260200190815260200160002060009054906101000a900460ff16905092915050565b600080611e3683611717565b90508073ffffffffffffffffffffffffffffffffffffffff168473ffffffffffffffffffffffffffffffffffffffff161480611ea557508373ffffffffffffffffffffffffffffffffffffffff16611e8d84610d7c565b73ffffffffffffffffffffffffffffffffffffffff16145b80611eb65750611eb58185611d1e565b5b91505092915050565b8173ffffffffffffffffffffffffffffffffffffffff16611edf82611717565b73ffffffffffffffffffffffffffffffffffffffff16141515611f0157600080fd5b600073ffffffffffffffffffffffffffffffffffffffff166001600083815260200190815260200160002060009054906101000a900473ffffffffffffffffffffffffffffffffffffffff1673ffffffffffffffffffffffffffffffffffffffff161415156120245760006001600083815260200190815260200160002060006101000a81548173ffffffffffffffffffffffffffffffffffffffff021916908373ffffffffffffffffffffffffffffffffffffffff160217905550600073ffffffffffffffffffffffffffffffffffffffff168273ffffffffffffffffffffffffffffffffffffffff167f8c5be1e5ebec7d5bd14f71427d1e84f3dd0314c0f7b2291e5b200ac8c7c3b925836040518082815260200191505060405180910390a35b5050565b600080600061203785856127d6565b600760008581526020019081526020016000205492506120a36001600660008873ffffffffffffffffffffffffffffffffffffffff1673ffffffffffffffffffffffffffffffffffffffff1681526020019081526020016000208054905061290490919063ffffffff16565b9150600660008673ffffffffffffffffffffffffffffffffffffffff1673ffffffffffffffffffffffffffffffffffffffff168152602001908152602001600020828154811015156120f157fe5b906000526020600020900154905080600660008773ffffffffffffffffffffffffffffffffffffffff1673ffffffffffffffffffffffffffffffffffffffff1681526020019081526020016000208481548110151561214c57fe5b9060005260206000209001819055506000600660008773ffffffffffffffffffffffffffffffffffffffff1673ffffffffffffffffffffffffffffffffffffffff168152602001908152602001600020838154811015156121a957fe5b906000526020600020900181905550600660008673ffffffffffffffffffffffffffffffffffffffff1673ffffffffffffffffffffffffffffffffffffffff16815260200190815260200160002080548091906001900361220a9190612c92565b50600060076000868152602001908152602001600020819055508260076000838152602001908152602001600020819055505050505050565b600061224f838361291d565b600660008473ffffffffffffffffffffffffffffffffffffffff1673ffffffffffffffffffffffffffffffffffffffff168152602001908152602001600020805490509050600660008473ffffffffffffffffffffffffffffffffffffffff1673ffffffffffffffffffffffffffffffffffffffff16815260200190815260200160002080548060010182816122e59190612cbe565b916000526020600020900160008490919091505550806007600084815260200190815260200160002081905550505050565b6123218282612a75565b6008805490506009600083815260200190815260200160002081905550600880548060010182816123529190612cbe565b9160005260206000209001600083909190915055505050565b6123e882600b836040518082805190602001908083835b6020831015156123a75780518252602082019150602081019050602083039250612382565b6001836020036101000a0380198251168184511680821785525050505050509050019150509081526020016040518091039020612b2590919063ffffffff16565b7fd211483f91fc6eff862467f8de606587a30c8fc9981056f051b897a418df803a8282604051808373ffffffffffffffffffffffffffffffffffffffff1673ffffffffffffffffffffffffffffffffffffffff16815260200180602001828103825283818151815260200191508051906020019080838360005b8381101561247d578082015181840152602081019050612462565b50505050905090810190601f1680156124aa5780820380516001836020036101000a031916815260200191505b50935050505060405180910390a15050565b61253982600b836040518082805190602001908083835b6020831015156124f857805182526020820191506020810190506020830392506124d3565b6001836020036101000a0380198251168184511680821785525050505050509050019150509081526020016040518091039020612b8390919063ffffffff16565b7fbfec83d64eaa953f2708271a023ab9ee82057f8f3578d548c1a4ba0b5b7004898282604051808373ffffffffffffffffffffffffffffffffffffffff1673ffffffffffffffffffffffffffffffffffffffff16815260200180602001828103825283818151815260200191508051906020019080838360005b838110156125ce5780820151818401526020810190506125b3565b50505050905090810190601f1680156125fb5780820380516001836020036101000a031916815260200191505b50935050505060405180910390a15050565b60008061262f8573ffffffffffffffffffffffffffffffffffffffff16612be1565b151561263e57600191506127cd565b8473ffffffffffffffffffffffffffffffffffffffff1663f0b9e5ba8786866040518463ffffffff167c0100000000000000000000000000000000000000000000000000000000028152600401808473ffffffffffffffffffffffffffffffffffffffff1673ffffffffffffffffffffffffffffffffffffffff16815260200183815260200180602001828103825283818151815260200191508051906020019080838360005b838110156127005780820151818401526020810190506126e5565b50505050905090810190601f16801561272d5780820380516001836020036101000a031916815260200191505b50945050505050602060405180830381600087803b151561274d57600080fd5b5af1151561275a57600080fd5b50505060405180519050905063f0b9e5ba7c0100000000000000000000000000000000000000000000000000000000027bffffffffffffffffffffffffffffffffffffffffffffffffffffffff1916817bffffffffffffffffffffffffffffffffffffffffffffffffffffffff19161491505b50949350505050565b8173ffffffffffffffffffffffffffffffffffffffff166127f682611717565b73ffffffffffffffffffffffffffffffffffffffff1614151561281857600080fd5b61286b6001600260008573ffffffffffffffffffffffffffffffffffffffff1673ffffffffffffffffffffffffffffffffffffffff1681526020019081526020016000205461290490919063ffffffff16565b600260008473ffffffffffffffffffffffffffffffffffffffff1673ffffffffffffffffffffffffffffffffffffffff16815260200190815260200160002081905550600080600083815260200190815260200160002060006101000a81548173ffffffffffffffffffffffffffffffffffffffff021916908373ffffffffffffffffffffffffffffffffffffffff1602179055505050565b600082821115151561291257fe5b818303905092915050565b600073ffffffffffffffffffffffffffffffffffffffff1660008083815260200190815260200160002060009054906101000a900473ffffffffffffffffffffffffffffffffffffffff1673ffffffffffffffffffffffffffffffffffffffff1614151561298a57600080fd5b8160008083815260200190815260200160002060006101000a81548173ffffffffffffffffffffffffffffffffffffffff021916908373ffffffffffffffffffffffffffffffffffffffff160217905550612a2e6001600260008573ffffffffffffffffffffffffffffffffffffffff1673ffffffffffffffffffffffffffffffffffffffff16815260200190815260200160002054612bf490919063ffffffff16565b600260008473ffffffffffffffffffffffffffffffffffffffff1673ffffffffffffffffffffffffffffffffffffffff168152602001908152602001600020819055505050565b600073ffffffffffffffffffffffffffffffffffffffff168273ffffffffffffffffffffffffffffffffffffffff1614151515612ab157600080fd5b612abb8282612243565b8173ffffffffffffffffffffffffffffffffffffffff16600073ffffffffffffffffffffffffffffffffffffffff167fddf252ad1be2c89b69c2b068fc378daa952ba7f163c4a11628f55a4df523b3ef836040518082815260200191505060405180910390a35050565b60008260000160008373ffffffffffffffffffffffffffffffffffffffff1673ffffffffffffffffffffffffffffffffffffffff16815260200190815260200160002060006101000a81548160ff0219169083151502179055505050565b60018260000160008373ffffffffffffffffffffffffffffffffffffffff1673ffffffffffffffffffffffffffffffffffffffff16815260200190815260200160002060006101000a81548160ff0219169083151502179055505050565b600080823b905060008111915050919050565b6000808284019050838110151515612c0857fe5b8091505092915050565b602060405190810160405280600081525090565b606060405190810160405280600067ffffffffffffffff168152602001600067ffffffffffffffff168152602001600067ffffffffffffffff1681525090565b815481835581811511612c8d57818360005260206000209182019101612c8c9190612cea565b5b505050565b815481835581811511612cb957818360005260206000209182019101612cb89190612d5a565b5b505050565b815481835581811511612ce557818360005260206000209182019101612ce49190612d5a565b5b505050565b612d5791905b80821115612d5357600080820160006101000a81549067ffffffffffffffff02191690556000820160086101000a81549067ffffffffffffffff02191690556000820160106101000a81549067ffffffffffffffff021916905550600101612cf0565b5090565b90565b612d7c91905b80821115612d78576000816000905550600101612d60565b5090565b905600a165627a7a7230582064b1cfe4ef8171e16a8d5473fcc3dfffa79a618abf539b121ba0ff9a5550f5e90029",
  "source": "pragma solidity ^0.4.21;\n\nimport \"./ButtonClickGame.sol\";\n\ncontract ButtonClickGameContract is ButtonClickGame {\n\n    /**\n     * Core constructer, which starts the game contact\n     */\n    function ButtonClickGameContract() public {\n        // The contract creator immediately takes over both Admin and Finance roles\n        addRole(msg.sender, ROLE_ADMIN);\n        addRole(msg.sender, ROLE_FINANCE);\n\n        minimumFee = 500000000000000; // 0.0005 ETH (hopefully low enough to not deter users, but high enough to avoid bots)\n        requiredBlocksElapsedForVictory = 20; // 20 blocks must elapse to win\n    }    \n\n    /**\n     * @dev Officially starts the game and configures all initial details\n     */\n    function startGame() external onlyAdmin {\n        require(!started);\n        started = true;\n        blockNumberForVictory = block.number + requiredBlocksElapsedForVictory;\n    }\n\n    /**\n     * @dev A simple function to allow for deposits into this contract. We use this\n     * instead of the fallback function to ensure that deposits are intentional \n     */\n    function sendDeposit() external payable {\n        \n    }\n\n}",
  "sourcePath": "/Users/williambaumann/workspace/Ethereum/theetherbutton/contracts/ButtonClickGameContract.sol",
  "compiler": {
    "name": "solc",
    "version": "0.4.21+commit.dfe3193c.Emscripten.clang"
  },
  "schemaVersion": "2.0.0",
  "updatedAt": "2018-05-31T18:07:33.105Z"
}