{
  "contractName": "ButtonClickGameControls",
  "abi": [
    {
      "constant": true,
      "inputs": [
        {
          "name": "addr",
          "type": "address"
        },
        {
          "name": "roleName",
          "type": "string"
        }
      ],
      "name": "checkRole",
      "outputs": [],
      "payable": false,
      "stateMutability": "view",
      "type": "function"
    },
    {
      "constant": true,
      "inputs": [],
      "name": "minimumFee",
      "outputs": [
        {
          "name": "",
          "type": "uint256"
        }
      ],
      "payable": false,
      "stateMutability": "view",
      "type": "function"
    },
    {
      "constant": true,
      "inputs": [],
      "name": "started",
      "outputs": [
        {
          "name": "",
          "type": "bool"
        }
      ],
      "payable": false,
      "stateMutability": "view",
      "type": "function"
    },
    {
      "constant": true,
      "inputs": [
        {
          "name": "addr",
          "type": "address"
        },
        {
          "name": "roleName",
          "type": "string"
        }
      ],
      "name": "hasRole",
      "outputs": [
        {
          "name": "",
          "type": "bool"
        }
      ],
      "payable": false,
      "stateMutability": "view",
      "type": "function"
    },
    {
      "constant": true,
      "inputs": [],
      "name": "requiredBlocksElapsedForVictory",
      "outputs": [
        {
          "name": "",
          "type": "uint256"
        }
      ],
      "payable": false,
      "stateMutability": "view",
      "type": "function"
    },
    {
      "constant": false,
      "inputs": [
        {
          "name": "addr",
          "type": "address"
        },
        {
          "name": "roleName",
          "type": "string"
        }
      ],
      "name": "adminRemoveRole",
      "outputs": [],
      "payable": false,
      "stateMutability": "nonpayable",
      "type": "function"
    },
    {
      "constant": false,
      "inputs": [
        {
          "name": "addr",
          "type": "address"
        },
        {
          "name": "roleName",
          "type": "string"
        }
      ],
      "name": "adminAddRole",
      "outputs": [],
      "payable": false,
      "stateMutability": "nonpayable",
      "type": "function"
    },
    {
      "constant": true,
      "inputs": [],
      "name": "ROLE_ADMIN",
      "outputs": [
        {
          "name": "",
          "type": "string"
        }
      ],
      "payable": false,
      "stateMutability": "view",
      "type": "function"
    },
    {
      "anonymous": false,
      "inputs": [
        {
          "indexed": false,
          "name": "addr",
          "type": "address"
        },
        {
          "indexed": false,
          "name": "roleName",
          "type": "string"
        }
      ],
      "name": "RoleAdded",
      "type": "event"
    },
    {
      "anonymous": false,
      "inputs": [
        {
          "indexed": false,
          "name": "addr",
          "type": "address"
        },
        {
          "indexed": false,
          "name": "roleName",
          "type": "string"
        }
      ],
      "name": "RoleRemoved",
      "type": "event"
    },
    {
      "constant": false,
      "inputs": [
        {
          "name": "_requiredBlocksElapsedForVictory",
          "type": "uint256"
        }
      ],
      "name": "setRequiredBlocksElapsedForVictory",
      "outputs": [],
      "payable": false,
      "stateMutability": "nonpayable",
      "type": "function"
    },
    {
      "constant": false,
      "inputs": [
        {
          "name": "_minimumFee",
          "type": "uint256"
        }
      ],
      "name": "setMinimumFee",
      "outputs": [],
      "payable": false,
      "stateMutability": "nonpayable",
      "type": "function"
    },
    {
      "constant": false,
      "inputs": [],
      "name": "withdrawBalance",
      "outputs": [],
      "payable": false,
      "stateMutability": "nonpayable",
      "type": "function"
    }
  ],
  "bytecode": "0x60606040526000600160006101000a81548160ff021916908315150217905550610071336040805190810160405280600581526020017f61646d696e0000000000000000000000000000000000000000000000000000008152506100766401000000000261090b176401000000009004565b610232565b610100826000836040518082805190602001908083835b6020831015156100b2578051825260208201915060208101905060208303925061008d565b6001836020036101000a03801982511681845116808217855250505050505090500191505090815260200160405180910390206101d464010000000002610aba179091906401000000009004565b7fbfec83d64eaa953f2708271a023ab9ee82057f8f3578d548c1a4ba0b5b7004898282604051808373ffffffffffffffffffffffffffffffffffffffff1673ffffffffffffffffffffffffffffffffffffffff16815260200180602001828103825283818151815260200191508051906020019080838360005b8381101561019557808201518184015260208101905061017a565b50505050905090810190601f1680156101c25780820380516001836020036101000a031916815260200191505b50935050505060405180910390a15050565b60018260000160008373ffffffffffffffffffffffffffffffffffffffff1673ffffffffffffffffffffffffffffffffffffffff16815260200190815260200160002060006101000a81548160ff0219169083151502179055505050565b610b44806102416000396000f3006060604052600436106100af576000357c0100000000000000000000000000000000000000000000000000000000900463ffffffff1680630988ca8c146100b4578063182a7506146101305780631a7626e7146101535780631f2698ab1461017c578063217fe6c6146101a957806324fa6f3b1461023d5780633ccb25a2146102665780635fd8c7101461028957806388cee87e1461029e578063b25fa92c1461031a578063d391014b14610396575b600080fd5b34156100bf57600080fd5b61012e600480803573ffffffffffffffffffffffffffffffffffffffff1690602001909190803590602001908201803590602001908080601f01602080910402602001604051908101604052809392919081815260200183838082843782019150505050505091905050610424565b005b341561013b57600080fd5b61015160048080359060200190919050506104a5565b005b341561015e57600080fd5b6101666104ee565b6040518082815260200191505060405180910390f35b341561018757600080fd5b61018f6104f4565b604051808215151515815260200191505060405180910390f35b34156101b457600080fd5b610223600480803573ffffffffffffffffffffffffffffffffffffffff1690602001909190803590602001908201803590602001908080601f01602080910402602001604051908101604052809392919081815260200183838082843782019150505050505091905050610507565b604051808215151515815260200191505060405180910390f35b341561024857600080fd5b61025061058e565b6040518082815260200191505060405180910390f35b341561027157600080fd5b6102876004808035906020019091905050610594565b005b341561029457600080fd5b61029c6105dd565b005b34156102a957600080fd5b610318600480803573ffffffffffffffffffffffffffffffffffffffff1690602001909190803590602001908201803590602001908080601f01602080910402602001604051908101604052809392919081815260200183838082843782019150505050505091905050610675565b005b341561032557600080fd5b610394600480803573ffffffffffffffffffffffffffffffffffffffff1690602001909190803590602001908201803590602001908080601f016020809104026020016040519081016040528093929190818152602001838380828437820191505050505050919050506106c2565b005b34156103a157600080fd5b6103a961070f565b6040518080602001828103825283818151815260200191508051906020019080838360005b838110156103e95780820151818401526020810190506103ce565b50505050905090810190601f1680156104165780820380516001836020036101000a031916815260200191505b509250505060405180910390f35b6104a1826000836040518082805190602001908083835b602083101515610460578051825260208201915060208101905060208303925061043b565b6001836020036101000a038019825116818451168082178552505050505050905001915050908152602001604051809103902061074890919063ffffffff16565b5050565b6104e4336040805190810160405280600781526020017f66696e616e636500000000000000000000000000000000000000000000000000815250610424565b8060028190555050565b60025481565b600160009054906101000a900460ff1681565b6000610586836000846040518082805190602001908083835b6020831015156105455780518252602082019150602081019050602083039250610520565b6001836020036101000a038019825116818451168082178552505050505050905001915050908152602001604051809103902061076190919063ffffffff16565b905092915050565b60035481565b6105d3336040805190810160405280600581526020017f61646d696e000000000000000000000000000000000000000000000000000000815250610424565b8060038190555050565b61061c336040805190810160405280600781526020017f66696e616e636500000000000000000000000000000000000000000000000000815250610424565b3373ffffffffffffffffffffffffffffffffffffffff166108fc3073ffffffffffffffffffffffffffffffffffffffff16319081150290604051600060405180830381858888f19350505050151561067357600080fd5b565b6106b4336040805190810160405280600581526020017f61646d696e000000000000000000000000000000000000000000000000000000815250610424565b6106be82826107ba565b5050565b610701336040805190810160405280600581526020017f61646d696e000000000000000000000000000000000000000000000000000000815250610424565b61070b828261090b565b5050565b6040805190810160405280600581526020017f61646d696e00000000000000000000000000000000000000000000000000000081525081565b6107528282610761565b151561075d57600080fd5b5050565b60008260000160008373ffffffffffffffffffffffffffffffffffffffff1673ffffffffffffffffffffffffffffffffffffffff16815260200190815260200160002060009054906101000a900460ff16905092915050565b610837826000836040518082805190602001908083835b6020831015156107f657805182526020820191506020810190506020830392506107d1565b6001836020036101000a0380198251168184511680821785525050505050509050019150509081526020016040518091039020610a5c90919063ffffffff16565b7fd211483f91fc6eff862467f8de606587a30c8fc9981056f051b897a418df803a8282604051808373ffffffffffffffffffffffffffffffffffffffff1673ffffffffffffffffffffffffffffffffffffffff16815260200180602001828103825283818151815260200191508051906020019080838360005b838110156108cc5780820151818401526020810190506108b1565b50505050905090810190601f1680156108f95780820380516001836020036101000a031916815260200191505b50935050505060405180910390a15050565b610988826000836040518082805190602001908083835b6020831015156109475780518252602082019150602081019050602083039250610922565b6001836020036101000a0380198251168184511680821785525050505050509050019150509081526020016040518091039020610aba90919063ffffffff16565b7fbfec83d64eaa953f2708271a023ab9ee82057f8f3578d548c1a4ba0b5b7004898282604051808373ffffffffffffffffffffffffffffffffffffffff1673ffffffffffffffffffffffffffffffffffffffff16815260200180602001828103825283818151815260200191508051906020019080838360005b83811015610a1d578082015181840152602081019050610a02565b50505050905090810190601f168015610a4a5780820380516001836020036101000a031916815260200191505b50935050505060405180910390a15050565b60008260000160008373ffffffffffffffffffffffffffffffffffffffff1673ffffffffffffffffffffffffffffffffffffffff16815260200190815260200160002060006101000a81548160ff0219169083151502179055505050565b60018260000160008373ffffffffffffffffffffffffffffffffffffffff1673ffffffffffffffffffffffffffffffffffffffff16815260200190815260200160002060006101000a81548160ff02191690831515021790555050505600a165627a7a723058206857bfddcf4f14b5ea1c1afa25d16ddbb65d6cffcada345d85c94a3b6a3a5afe0029",
  "source": "pragma solidity ^0.4.21;\n\nimport \"./ButtonClickRBAC.sol\";\n\n/*\n * @title Defines specific controls for game administrators\n */\ncontract ButtonClickGameControls is ButtonClickRBAC {\n\n    /**\n     * Monitors if the game has been started\n     */\n    bool public started = false;\n\n    /**\n     * In order to reduce the likelihood of someone spamming the button click continually with\n     * multiple ether addresses, which would effectively prevent the button from ever decrementing, \n     * we have introduced the concept of a minimum fee required to click the button. \n     */\n    uint256 public minimumFee;\n\n    /**\n     * Defines how many blocks must elapse before the game can be \"won\"\n     *\n     * http://solidity.readthedocs.io/en/develop/contracts.html?#visibility-and-getters\n     */\n    uint256 public requiredBlocksElapsedForVictory;\n\n    /**\n     * @dev Access modifier, which restricts a call to happen once the game is started\n     */\n    modifier isStarted() {\n        require(started);\n        _;\n    }\n\n    /**\n     * @dev Changes the required number of blocks for victory. This may ONLY be called by the \"admin\" role\n     */\n    function setRequiredBlocksElapsedForVictory(uint256 _requiredBlocksElapsedForVictory) external onlyAdmin {\n        requiredBlocksElapsedForVictory = _requiredBlocksElapsedForVictory;\n    }\n    \n    /**\n     * @dev Changes the minimum fee. This may ONLY be called by the \"finance\" role\n     */\n    function setMinimumFee(uint256 _minimumFee) external onlyFinance {\n        minimumFee = _minimumFee;\n    }\n\n    /**\n     * @dev Withdraws the available balance. This may ONLY be called by the \"finance\" role\n     */\n    function withdrawBalance() external onlyFinance {\n        msg.sender.transfer(address(this).balance);\n    }\n    \n}",
  "sourcePath": "/Users/williambaumann/workspace/Ethereum/theetherbutton/contracts/ButtonClickGameControls.sol",
  "compiler": {
    "name": "solc",
    "version": "0.4.21+commit.dfe3193c.Emscripten.clang"
  },
  "schemaVersion": "2.0.0",
  "updatedAt": "2018-05-31T18:04:48.280Z"
}